{
  "_format": "hh-sol-artifact-1",
  "contractName": "RefundEscrow",
  "sourceName": "contracts/utils/escrow/RefundEscrow.sol",
  "abi": [
    {
      "inputs": [
        {
          "internalType": "address payable",
          "name": "beneficiary_",
          "type": "address"
        }
      ],
      "stateMutability": "nonpayable",
      "type": "constructor"
    },
    {
      "anonymous": false,
      "inputs": [
        {
          "indexed": true,
          "internalType": "address",
          "name": "payee",
          "type": "address"
        },
        {
          "indexed": false,
          "internalType": "uint256",
          "name": "weiAmount",
          "type": "uint256"
        }
      ],
      "name": "Deposited",
      "type": "event"
    },
    {
      "anonymous": false,
      "inputs": [
        {
          "indexed": true,
          "internalType": "address",
          "name": "previousOwner",
          "type": "address"
        },
        {
          "indexed": true,
          "internalType": "address",
          "name": "newOwner",
          "type": "address"
        }
      ],
      "name": "OwnershipTransferred",
      "type": "event"
    },
    {
      "anonymous": false,
      "inputs": [],
      "name": "RefundsClosed",
      "type": "event"
    },
    {
      "anonymous": false,
      "inputs": [],
      "name": "RefundsEnabled",
      "type": "event"
    },
    {
      "anonymous": false,
      "inputs": [
        {
          "indexed": true,
          "internalType": "address",
          "name": "payee",
          "type": "address"
        },
        {
          "indexed": false,
          "internalType": "uint256",
          "name": "weiAmount",
          "type": "uint256"
        }
      ],
      "name": "Withdrawn",
      "type": "event"
    },
    {
      "inputs": [],
      "name": "beneficiary",
      "outputs": [
        {
          "internalType": "address payable",
          "name": "",
          "type": "address"
        }
      ],
      "stateMutability": "view",
      "type": "function"
    },
    {
      "inputs": [],
      "name": "beneficiaryWithdraw",
      "outputs": [],
      "stateMutability": "nonpayable",
      "type": "function"
    },
    {
      "inputs": [],
      "name": "close",
      "outputs": [],
      "stateMutability": "nonpayable",
      "type": "function"
    },
    {
      "inputs": [
        {
          "internalType": "address",
          "name": "refundee",
          "type": "address"
        }
      ],
      "name": "deposit",
      "outputs": [],
      "stateMutability": "payable",
      "type": "function"
    },
    {
      "inputs": [
        {
          "internalType": "address",
          "name": "payee",
          "type": "address"
        }
      ],
      "name": "depositsOf",
      "outputs": [
        {
          "internalType": "uint256",
          "name": "",
          "type": "uint256"
        }
      ],
      "stateMutability": "view",
      "type": "function"
    },
    {
      "inputs": [],
      "name": "enableRefunds",
      "outputs": [],
      "stateMutability": "nonpayable",
      "type": "function"
    },
    {
      "inputs": [],
      "name": "owner",
      "outputs": [
        {
          "internalType": "address",
          "name": "",
          "type": "address"
        }
      ],
      "stateMutability": "view",
      "type": "function"
    },
    {
      "inputs": [],
      "name": "renounceOwnership",
      "outputs": [],
      "stateMutability": "nonpayable",
      "type": "function"
    },
    {
      "inputs": [],
      "name": "state",
      "outputs": [
        {
          "internalType": "enum RefundEscrow.State",
          "name": "",
          "type": "uint8"
        }
      ],
      "stateMutability": "view",
      "type": "function"
    },
    {
      "inputs": [
        {
          "internalType": "address",
          "name": "newOwner",
          "type": "address"
        }
      ],
      "name": "transferOwnership",
      "outputs": [],
      "stateMutability": "nonpayable",
      "type": "function"
    },
    {
      "inputs": [
        {
          "internalType": "address payable",
          "name": "payee",
          "type": "address"
        }
      ],
      "name": "withdraw",
      "outputs": [],
      "stateMutability": "nonpayable",
      "type": "function"
    },
    {
      "inputs": [
        {
          "internalType": "address",
          "name": "",
          "type": "address"
        }
      ],
      "name": "withdrawalAllowed",
      "outputs": [
        {
          "internalType": "bool",
          "name": "",
          "type": "bool"
        }
      ],
      "stateMutability": "view",
      "type": "function"
    }
  ],
  "bytecode": "0x60a060405234801561001057600080fd5b50604051610c4c380380610c4c83398101604081905261002f916100ff565b600080546001600160a01b031916339081178255604051909182917f8be0079c531659141344cd1fd0a4f28419497f9722a3daafe3b4186f6b6457e0908290a3506001600160a01b0381166100e05760405162461bcd60e51b815260206004820152602d60248201527f526566756e64457363726f773a2062656e65666963696172792069732074686560448201526c207a65726f206164647265737360981b606482015260840160405180910390fd5b60601b6001600160601b0319166080526002805460ff1916905561012d565b600060208284031215610110578081fd5b81516001600160a01b0381168114610126578182fd5b9392505050565b60805160601c610afb6101516000396000818160bb015261060d0152610afb6000f3fe6080604052600436106100a75760003560e01c80638da5cb5b116100645780638da5cb5b146101895780639af6549a146101a7578063c19d93fb146101bc578063e3a9db1a146101dc578063f2fde38b14610220578063f340fa0114610240576100a7565b806338af3eed146100ac57806343d726d6146100f857806351cff8d91461010f578063685ca1941461012f578063715018a61461015f5780638c52dc4114610174575b600080fd5b3480156100b857600080fd5b507f00000000000000000000000000000000000000000000000000000000000000005b6040516001600160a01b0390911681526020015b60405180910390f35b34801561010457600080fd5b5061010d610253565b005b34801561011b57600080fd5b5061010d61012a366004610a0c565b610349565b34801561013b57600080fd5b5061014f61014a366004610a0c565b6103c6565b60405190151581526020016100ef565b34801561016b57600080fd5b5061010d6103fc565b34801561018057600080fd5b5061010d610470565b34801561019557600080fd5b506000546001600160a01b03166100db565b3480156101b357600080fd5b5061010d610567565b3480156101c857600080fd5b5060025460ff166040516100ef9190610a2f565b3480156101e857600080fd5b506102126101f7366004610a0c565b6001600160a01b031660009081526001602052604090205490565b6040519081526020016100ef565b34801561022c57600080fd5b5061010d61023b366004610a0c565b610635565b61010d61024e366004610a0c565b61071f565b6000546001600160a01b031633146102865760405162461bcd60e51b815260040161027d90610a57565b60405180910390fd5b600061029460025460ff1690565b60028111156102b357634e487b7160e01b600052602160045260246000fd5b146103125760405162461bcd60e51b815260206004820152602960248201527f526566756e64457363726f773a2063616e206f6e6c7920636c6f7365207768696044820152686c652061637469766560b81b606482015260840161027d565b6002805460ff1916811790556040517f088672c3a6e342f7cd94a65ba63b79df24a8973927b4d05d803c44bbf787d12f90600090a1565b610352816103c6565b6103ba5760405162461bcd60e51b815260206004820152603360248201527f436f6e646974696f6e616c457363726f773a207061796565206973206e6f7420604482015272616c6c6f77656420746f20776974686472617760681b606482015260840161027d565b6103c3816107b6565b50565b600060016103d660025460ff1690565b60028111156103f557634e487b7160e01b600052602160045260246000fd5b1492915050565b6000546001600160a01b031633146104265760405162461bcd60e51b815260040161027d90610a57565b600080546040516001600160a01b03909116907f8be0079c531659141344cd1fd0a4f28419497f9722a3daafe3b4186f6b6457e0908390a3600080546001600160a01b0319169055565b6000546001600160a01b0316331461049a5760405162461bcd60e51b815260040161027d90610a57565b60006104a860025460ff1690565b60028111156104c757634e487b7160e01b600052602160045260246000fd5b1461052f5760405162461bcd60e51b815260206004820152603260248201527f526566756e64457363726f773a2063616e206f6e6c7920656e61626c6520726560448201527166756e6473207768696c652061637469766560701b606482015260840161027d565b6002805460ff191660011790556040517f599d8e5a83cffb867d051598c4d70e805d59802d8081c1c7d6dffc5b6aca2b8990600090a1565b6002805460ff16600281111561058d57634e487b7160e01b600052602160045260246000fd5b146106005760405162461bcd60e51b815260206004820152603860248201527f526566756e64457363726f773a2062656e65666963696172792063616e206f6e60448201527f6c79207769746864726177207768696c6520636c6f7365640000000000000000606482015260840161027d565b6106336001600160a01b037f0000000000000000000000000000000000000000000000000000000000000000164761084f565b565b6000546001600160a01b0316331461065f5760405162461bcd60e51b815260040161027d90610a57565b6001600160a01b0381166106c45760405162461bcd60e51b815260206004820152602660248201527f4f776e61626c653a206e6577206f776e657220697320746865207a65726f206160448201526564647265737360d01b606482015260840161027d565b600080546040516001600160a01b03808516939216917f8be0079c531659141344cd1fd0a4f28419497f9722a3daafe3b4186f6b6457e091a3600080546001600160a01b0319166001600160a01b0392909216919091179055565b600061072d60025460ff1690565b600281111561074c57634e487b7160e01b600052602160045260246000fd5b146107ad5760405162461bcd60e51b815260206004820152602b60248201527f526566756e64457363726f773a2063616e206f6e6c79206465706f736974207760448201526a68696c652061637469766560a81b606482015260840161027d565b6103c38161096d565b6000546001600160a01b031633146107e05760405162461bcd60e51b815260040161027d90610a57565b6001600160a01b0381166000818152600160205260408120805491905590610808908261084f565b816001600160a01b03167f7084f5476618d8e60b11ef0d7d3f06914655adb8793e28ff7f018d4c76d505d58260405161084391815260200190565b60405180910390a25050565b8047101561089f5760405162461bcd60e51b815260206004820152601d60248201527f416464726573733a20696e73756666696369656e742062616c616e6365000000604482015260640161027d565b6000826001600160a01b03168260405160006040518083038185875af1925050503d80600081146108ec576040519150601f19603f3d011682016040523d82523d6000602084013e6108f1565b606091505b50509050806109685760405162461bcd60e51b815260206004820152603a60248201527f416464726573733a20756e61626c6520746f2073656e642076616c75652c207260448201527f6563697069656e74206d61792068617665207265766572746564000000000000606482015260840161027d565b505050565b6000546001600160a01b031633146109975760405162461bcd60e51b815260040161027d90610a57565b6001600160a01b03811660009081526001602052604090205434906109bd908290610a8c565b6001600160a01b038316600081815260016020526040908190209290925590517f2da466a7b24304f47e87fa2e1e5a81b9831ce54fec19055ce277ca2f39ba42c4906108439084815260200190565b600060208284031215610a1d578081fd5b8135610a2881610ab0565b9392505050565b6020810160038310610a5157634e487b7160e01b600052602160045260246000fd5b91905290565b6020808252818101527f4f776e61626c653a2063616c6c6572206973206e6f7420746865206f776e6572604082015260600190565b60008219821115610aab57634e487b7160e01b81526011600452602481fd5b500190565b6001600160a01b03811681146103c357600080fdfea2646970667358221220ee9c1f292310ddd1161f275e56038ab3d15659485f7a5382c85febb628efb34464736f6c63430008030033",
  "linkReferences": {},
  "deployedLinkReferences": {}
}